{
  "_format": "hh-sol-artifact-1",
  "contractName": "MedicinalPlantRegistry",
  "sourceName": "contracts/MedicinalPlantRegistry.sol",
  "abi": [
    {
      "anonymous": false,
      "inputs": [
        {
          "indexed": true,
          "internalType": "string",
          "name": "batchId",
          "type": "string"
        },
        {
          "indexed": false,
          "internalType": "string",
          "name": "plantName",
          "type": "string"
        },
        {
          "indexed": true,
          "internalType": "address",
          "name": "owner",
          "type": "address"
        },
        {
          "indexed": false,
          "internalType": "uint256",
          "name": "timestamp",
          "type": "uint256"
        }
      ],
      "name": "BatchRegistered",
      "type": "event"
    },
    {
      "anonymous": false,
      "inputs": [
        {
          "indexed": true,
          "internalType": "string",
          "name": "batchId",
          "type": "string"
        },
        {
          "indexed": true,
          "internalType": "address",
          "name": "previousOwner",
          "type": "address"
        },
        {
          "indexed": true,
          "internalType": "address",
          "name": "newOwner",
          "type": "address"
        },
        {
          "indexed": false,
          "internalType": "uint256",
          "name": "timestamp",
          "type": "uint256"
        }
      ],
      "name": "BatchTransferred",
      "type": "event"
    },
    {
      "anonymous": false,
      "inputs": [
        {
          "indexed": true,
          "internalType": "string",
          "name": "batchId",
          "type": "string"
        },
        {
          "indexed": false,
          "internalType": "string",
          "name": "ipfsCID",
          "type": "string"
        },
        {
          "indexed": false,
          "internalType": "uint256",
          "name": "timestamp",
          "type": "uint256"
        }
      ],
      "name": "BatchUpdated",
      "type": "event"
    },
    {
      "anonymous": false,
      "inputs": [
        {
          "indexed": true,
          "internalType": "string",
          "name": "batchId",
          "type": "string"
        },
        {
          "indexed": true,
          "internalType": "address",
          "name": "verifiedBy",
          "type": "address"
        },
        {
          "indexed": false,
          "internalType": "uint256",
          "name": "timestamp",
          "type": "uint256"
        }
      ],
      "name": "BatchVerified",
      "type": "event"
    },
    {
      "anonymous": false,
      "inputs": [
        {
          "indexed": true,
          "internalType": "address",
          "name": "account",
          "type": "address"
        },
        {
          "indexed": false,
          "internalType": "string",
          "name": "role",
          "type": "string"
        },
        {
          "indexed": true,
          "internalType": "address",
          "name": "assignedBy",
          "type": "address"
        }
      ],
      "name": "RoleAssigned",
      "type": "event"
    },
    {
      "anonymous": false,
      "inputs": [
        {
          "indexed": true,
          "internalType": "address",
          "name": "account",
          "type": "address"
        },
        {
          "indexed": true,
          "internalType": "address",
          "name": "revokedBy",
          "type": "address"
        }
      ],
      "name": "RoleRevoked",
      "type": "event"
    },
    {
      "inputs": [],
      "name": "ROLE_AUTHORITY",
      "outputs": [
        {
          "internalType": "string",
          "name": "",
          "type": "string"
        }
      ],
      "stateMutability": "view",
      "type": "function"
    },
    {
      "inputs": [],
      "name": "ROLE_DISTRIBUTOR",
      "outputs": [
        {
          "internalType": "string",
          "name": "",
          "type": "string"
        }
      ],
      "stateMutability": "view",
      "type": "function"
    },
    {
      "inputs": [],
      "name": "ROLE_FARMER",
      "outputs": [
        {
          "internalType": "string",
          "name": "",
          "type": "string"
        }
      ],
      "stateMutability": "view",
      "type": "function"
    },
    {
      "inputs": [],
      "name": "ROLE_PROCESSOR",
      "outputs": [
        {
          "internalType": "string",
          "name": "",
          "type": "string"
        }
      ],
      "stateMutability": "view",
      "type": "function"
    },
    {
      "inputs": [],
      "name": "admin",
      "outputs": [
        {
          "internalType": "address",
          "name": "",
          "type": "address"
        }
      ],
      "stateMutability": "view",
      "type": "function"
    },
    {
      "inputs": [
        {
          "internalType": "address",
          "name": "account",
          "type": "address"
        },
        {
          "internalType": "string",
          "name": "role",
          "type": "string"
        }
      ],
      "name": "assignRole",
      "outputs": [],
      "stateMutability": "nonpayable",
      "type": "function"
    },
    {
      "inputs": [
        {
          "internalType": "string",
          "name": "",
          "type": "string"
        }
      ],
      "name": "batches",
      "outputs": [
        {
          "internalType": "string",
          "name": "batchId",
          "type": "string"
        },
        {
          "internalType": "string",
          "name": "plantName",
          "type": "string"
        },
        {
          "internalType": "string",
          "name": "scientificName",
          "type": "string"
        },
        {
          "internalType": "string",
          "name": "partUsed",
          "type": "string"
        },
        {
          "internalType": "string",
          "name": "traditionalUse",
          "type": "string"
        },
        {
          "internalType": "uint256",
          "name": "harvestDate",
          "type": "uint256"
        },
        {
          "internalType": "string",
          "name": "sourceLocation",
          "type": "string"
        },
        {
          "internalType": "string",
          "name": "ipfsCID",
          "type": "string"
        },
        {
          "internalType": "address",
          "name": "currentOwner",
          "type": "address"
        },
        {
          "internalType": "bool",
          "name": "exists",
          "type": "bool"
        },
        {
          "internalType": "bool",
          "name": "verified",
          "type": "bool"
        }
      ],
      "stateMutability": "view",
      "type": "function"
    },
    {
      "inputs": [],
      "name": "getAllBatchIds",
      "outputs": [
        {
          "internalType": "string[]",
          "name": "",
          "type": "string[]"
        }
      ],
      "stateMutability": "view",
      "type": "function"
    },
    {
      "inputs": [
        {
          "internalType": "string",
          "name": "batchId",
          "type": "string"
        }
      ],
      "name": "getBatch",
      "outputs": [
        {
          "components": [
            {
              "internalType": "string",
              "name": "batchId",
              "type": "string"
            },
            {
              "internalType": "string",
              "name": "plantName",
              "type": "string"
            },
            {
              "internalType": "string",
              "name": "scientificName",
              "type": "string"
            },
            {
              "internalType": "string",
              "name": "partUsed",
              "type": "string"
            },
            {
              "internalType": "string",
              "name": "traditionalUse",
              "type": "string"
            },
            {
              "internalType": "uint256",
              "name": "harvestDate",
              "type": "uint256"
            },
            {
              "internalType": "string",
              "name": "sourceLocation",
              "type": "string"
            },
            {
              "internalType": "string",
              "name": "ipfsCID",
              "type": "string"
            },
            {
              "internalType": "address",
              "name": "currentOwner",
              "type": "address"
            },
            {
              "internalType": "bool",
              "name": "exists",
              "type": "bool"
            },
            {
              "internalType": "bool",
              "name": "verified",
              "type": "bool"
            }
          ],
          "internalType": "struct MedicinalPlantRegistry.Batch",
          "name": "",
          "type": "tuple"
        }
      ],
      "stateMutability": "view",
      "type": "function"
    },
    {
      "inputs": [
        {
          "internalType": "address",
          "name": "account",
          "type": "address"
        }
      ],
      "name": "getRole",
      "outputs": [
        {
          "internalType": "string",
          "name": "",
          "type": "string"
        }
      ],
      "stateMutability": "view",
      "type": "function"
    },
    {
      "inputs": [
        {
          "internalType": "string",
          "name": "batchId",
          "type": "string"
        }
      ],
      "name": "getTransferCount",
      "outputs": [
        {
          "internalType": "uint256",
          "name": "",
          "type": "uint256"
        }
      ],
      "stateMutability": "view",
      "type": "function"
    },
    {
      "inputs": [
        {
          "internalType": "string",
          "name": "batchId",
          "type": "string"
        }
      ],
      "name": "getTransferHistory",
      "outputs": [
        {
          "components": [
            {
              "internalType": "string",
              "name": "batchId",
              "type": "string"
            },
            {
              "internalType": "address",
              "name": "previousOwner",
              "type": "address"
            },
            {
              "internalType": "address",
              "name": "newOwner",
              "type": "address"
            },
            {
              "internalType": "uint256",
              "name": "timestamp",
              "type": "uint256"
            },
            {
              "internalType": "string",
              "name": "note",
              "type": "string"
            }
          ],
          "internalType": "struct BatchTransfer.TransferRecord[]",
          "name": "",
          "type": "tuple[]"
        }
      ],
      "stateMutability": "view",
      "type": "function"
    },
    {
      "inputs": [
        {
          "internalType": "address",
          "name": "account",
          "type": "address"
        },
        {
          "internalType": "string",
          "name": "role",
          "type": "string"
        }
      ],
      "name": "hasRole",
      "outputs": [
        {
          "internalType": "bool",
          "name": "",
          "type": "bool"
        }
      ],
      "stateMutability": "view",
      "type": "function"
    },
    {
      "inputs": [
        {
          "internalType": "string",
          "name": "batchId",
          "type": "string"
        }
      ],
      "name": "isBatchVerified",
      "outputs": [
        {
          "internalType": "bool",
          "name": "exists",
          "type": "bool"
        },
        {
          "internalType": "bool",
          "name": "verified",
          "type": "bool"
        }
      ],
      "stateMutability": "view",
      "type": "function"
    },
    {
      "inputs": [
        {
          "internalType": "string",
          "name": "batchId",
          "type": "string"
        },
        {
          "internalType": "string",
          "name": "plantName",
          "type": "string"
        },
        {
          "internalType": "string",
          "name": "scientificName",
          "type": "string"
        },
        {
          "internalType": "string",
          "name": "partUsed",
          "type": "string"
        },
        {
          "internalType": "string",
          "name": "traditionalUse",
          "type": "string"
        },
        {
          "internalType": "uint256",
          "name": "harvestDate",
          "type": "uint256"
        },
        {
          "internalType": "string",
          "name": "sourceLocation",
          "type": "string"
        },
        {
          "internalType": "string",
          "name": "ipfsCID",
          "type": "string"
        }
      ],
      "name": "registerBatch",
      "outputs": [],
      "stateMutability": "nonpayable",
      "type": "function"
    },
    {
      "inputs": [
        {
          "internalType": "address",
          "name": "account",
          "type": "address"
        }
      ],
      "name": "revokeRole",
      "outputs": [],
      "stateMutability": "nonpayable",
      "type": "function"
    },
    {
      "inputs": [
        {
          "internalType": "address",
          "name": "",
          "type": "address"
        }
      ],
      "name": "roles",
      "outputs": [
        {
          "internalType": "string",
          "name": "",
          "type": "string"
        }
      ],
      "stateMutability": "view",
      "type": "function"
    },
    {
      "inputs": [],
      "name": "totalBatches",
      "outputs": [
        {
          "internalType": "uint256",
          "name": "",
          "type": "uint256"
        }
      ],
      "stateMutability": "view",
      "type": "function"
    },
    {
      "inputs": [
        {
          "internalType": "string",
          "name": "batchId",
          "type": "string"
        },
        {
          "internalType": "address",
          "name": "newOwner",
          "type": "address"
        },
        {
          "internalType": "string",
          "name": "note",
          "type": "string"
        }
      ],
      "name": "transferBatch",
      "outputs": [],
      "stateMutability": "nonpayable",
      "type": "function"
    },
    {
      "inputs": [
        {
          "internalType": "string",
          "name": "batchId",
          "type": "string"
        },
        {
          "internalType": "string",
          "name": "newCID",
          "type": "string"
        }
      ],
      "name": "updateBatchCID",
      "outputs": [],
      "stateMutability": "nonpayable",
      "type": "function"
    },
    {
      "inputs": [
        {
          "internalType": "string",
          "name": "batchId",
          "type": "string"
        }
      ],
      "name": "verifyBatch",
      "outputs": [],
      "stateMutability": "nonpayable",
      "type": "function"
    }
  ],
  "bytecode": "0x604060808152346200020e57600080546001600160a01b031916331781556200002762000213565b338252600160208181528484208351919493909291906001600160401b038211620001fa5783548381811c91168015620001ef575b87821014620001db57601f811162000190575b508590601f83116001146200012c57928293918392879462000120575b50501b916000199060031b1c19161790555b620000a862000213565b908351928084528251928382860152825b8481106200010c575050508382840101527f2ac3f900fc395bf03c0cc5554fdf1d941abe14fe67c7712f29e9ca7dfc76d902339284813394601f80199101168101030190a3516123fd9081620002608239f35b8181018301518682018801528201620000b9565b0151925038806200008c565b848652868620919083601f198116885b8a888383106200017857505050106200015e575b505050811b0190556200009e565b015160001960f88460031b161c1916905538808062000150565b8686015188559096019594850194879350016200013c565b848652868620601f840160051c810191888510620001d0575b601f0160051c019084905b828110620001c45750506200006f565b878155018490620001b4565b9091508190620001a9565b634e487b7160e01b86526022600452602486fd5b90607f16906200005c565b634e487b7160e01b85526041600452602485fd5b600080fd5b60408051919082016001600160401b0381118382101762000249576040526009825268417574686f7269747960b81b6020830152565b634e487b7160e01b600052604160045260246000fdfe608080604052600436101561001357600080fd5b60003560e01c90816305026ec214611d5757508063217fe6c614611cff57806321a6f8aa14611ce35780632b93962c14611cc757806334601b2c1461184f5780634048e6d0146117e757806344276733146112fc57806369ff6abb146117c95780637b2cca7c146116445780637ef1446a1461145857806380e52e3f1461134057806399374642146112fc578063b0f0567d146112b8578063b2acc6ff14610801578063b7dfcbee1461066a578063bce0694714610579578063bcec1df31461055d578063e906dc421461040e578063ebb6a8ce146103da578063f851a440146103b15763f9ca42741461010657600080fd5b346103ac5760203660031901126103ac576004356001600160401b0381116103ac576101386020913690600401611e88565b9190600061014060405161014b81611f29565b6060815260608582015260606040820152606080820152606060808201528260a0820152606060c0820152606060e0820152826101008201528261012082015201526101b360ff60086040518685823785818881016003815203019020015460a01c166122e4565b8260405193849283378101600381520301902060ff6008604051926101d784611f29565b6040516101ef816101e88185612093565b0382611f60565b8452604051610205816101e88160018601612093565b602085015260405161021e816101e88160028601612093565b6040850152604051610237816101e88160038601612093565b6060850152604051610250816101e88160048601612093565b6080850152600581015460a0850152604051610273816101e88160068601612093565b60c085015260405161028c816101e88160078601612093565b60e0850152015460018060a01b038116610100840152818160a01c16151561012084015260a81c16151561014082015260405180916020825261014061037b6102e383516101606020870152610180860190611fc9565b61036561034761033361031f61030b602089015195601f1996878c83030160408d0152611fc9565b6040890151868b83030160608c0152611fc9565b6060880151858a83030160808b0152611fc9565b6080870151848983030160a08a0152611fc9565b60a086015160c088015260c0860151838883030160e0890152611fc9565b9060e08501519086830301610100870152611fc9565b6101008301516001600160a01b03166101208581019190915283015115158285015291015115156101608301520390f35b600080fd5b346103ac5760003660031901126103ac576000546040516001600160a01b039091168152602090f35b346103ac5760003660031901126103ac5761040a6103f6612150565b604051918291602083526020830190611fc9565b0390f35b346103ac576020806003193601126103ac576004356001600160401b0381116103ac5761043f903690600401611e88565b9033600052600183526101e861045f604060002060405192838092612093565b83815191012061046d611fee565b848151910120036105085761049e60ff60086040518585823786818781016003815203019020015460a01c166122e4565b60086040518383823760038482019081528190038501902001805460ff60a81b1916600160a81b179055604051918291819083378101600081520390207f7233eab09625ba69632ea5fbb9080d8187f65ff324ad329ffbcc253ed1bb28da604051924284523393a3005b60405162461bcd60e51b815260048101849052602760248201527f526f6c654d616e616765723a2063616c6c6572206973206e6f7420616e20417560448201526674686f7269747960c81b6064820152608490fd5b346103ac5760003660031901126103ac5761040a6103f6612129565b346103ac5760003660031901126103ac576004546105968161218b565b906105a46040519283611f60565b808252602090818301908160046000527f8a35acfbc15ff81a39ae7d344fd709f28e8600b4aa8c65c6b64bfe7fe36bd19b6000915b8383106106405750505050604051918083019381845251809452604083019360408160051b85010192916000955b8287106106145785850386f35b909192938280610630600193603f198a82030186528851611fc9565b9601920196019592919092610607565b6001868192604099989951610659816101e88189612093565b8152019201920191909594956105d9565b346103ac5761067836611ecb565b60005490926001600160a01b0391610693908316331461237c565b169081156107bc576106a6368483612013565b9283516020809501206106b7612150565b85815191012081149081156107a4575b811561078c575b8115610775575b501561073057907f2ac3f900fc395bf03c0cc5554fdf1d941abe14fe67c7712f29e9ca7dfc76d90291836000526001855261071581836040600020612200565b61072b60405192839287845233978401916122c3565b0390a3005b60405162461bcd60e51b815260048101859052601960248201527f526f6c654d616e616765723a20696e76616c696420726f6c65000000000000006044820152606490fd5b905061077f611fee565b85815191012014856106d5565b9050610796612129565b8581519101208114906106ce565b90506107ae611f81565b8581519101208114906106c7565b60405162461bcd60e51b815260206004820152601960248201527f526f6c654d616e616765723a207a65726f2061646472657373000000000000006044820152606490fd5b346103ac576101003660031901126103ac576004356001600160401b0381116103ac57610832903690600401611e88565b6024356001600160401b0381116103ac57610851903690600401611e88565b9290916044356001600160401b0381116103ac57610873903690600401611e88565b906064356001600160401b0381116103ac57610893903690600401611e88565b906001600160401b03608435116103ac576108b336608435600401611e88565b9060c4356001600160401b0381116103ac576108d3903690600401611e88565b9290936001600160401b0360e435116103ac576108f53660e435600401611e88565b9690973360005260016020526101e8610918604060002060405192838092612093565b60208151910120610927612150565b6020815191012003611267578a156112225760ff60088c60208f826040519384928337600381830152810103019020015460a01c166111d2578d1561118d57871561114857604051998d8f8e8e61097d8f611f29565b369061098892612013565b8d52369061099592612013565b60208c015236906109a592612013565b60408a015236906109b592612013565b606088015236906109c592612013565b608086015260a43560a086015236906109dd92612013565b60c084015236906109ed92612013565b60e0820152336101008201526001610120820152600061014082015260405182848237808381016003815203602001902081518051906001600160401b038211610dcc578190610a4782610a418654612059565b866121b9565b602090601f83116001146110dc576000926110d1575b50508160011b916000199060031b1c19161781555b60208201518051906001600160401b038211610dcc578190610aa482610a9b6001870154612059565b600187016121b9565b602090601f831160011461105f57600092611054575b50508160011b916000199060031b1c19161760018201555b60408201518051906001600160401b038211610dcc578190610b0482610afb6002870154612059565b600287016121b9565b602090601f8311600114610fe257600092610fd7575b50508160011b916000199060031b1c19161760028201555b60608201518051906001600160401b038211610dcc578190610b6482610b5b6003870154612059565b600387016121b9565b602090601f8311600114610f6557600092610f5a575b50508160011b916000199060031b1c19161760038201555b60808201518051906001600160401b038211610dcc578190610bc482610bbb6004870154612059565b600487016121b9565b602090601f8311600114610ee857600092610edd575b50508160011b916000199060031b1c19161760048201555b60a0820151600582015560c08201518051906001600160401b038211610dcc578190610c2e82610c256006870154612059565b600687016121b9565b602090601f8311600114610e6b57600092610e60575b50508160011b916000199060031b1c19161760068201555b60e08201518051906001600160401b038211610dcc57610c8c82610c836007860154612059565b600786016121b9565b602090601f8311600114610ded57600893929160009183610de2575b50508160011b916000199060031b1c19161760078201555b019060018060a01b03610100820151169082549160ff60a01b610120830151151560a01b169161014060ff60a81b910151151560a81b169269ffffffffffffffffffff60b01b16171717905560045490600160401b821015610dcc576001820180600455821015610db65782610d82827f8d52bff518e9a98aea88486838babc0cf8c92bc88ad871a6a520df31912a0ba595610da79560046000527f8a35acfbc15ff81a39ae7d344fd709f28e8600b4aa8c65c6b64bfe7fe36bd19b01612200565b81604051928392833781016000815203902092604051946040865260408601916122c3565b924260208201528033940390a3005b634e487b7160e01b600052603260045260246000fd5b634e487b7160e01b600052604160045260246000fd5b015190508980610ca8565b906007840160005260206000209160005b601f1985168110610e48575091839160019360089695601f19811610610e2f575b505050811b016007820155610cc0565b015160001960f88460031b161c19169055898080610e1f565b91926020600181928685015181550194019201610dfe565b015190508880610c44565b9250600684016000526020600020906000935b601f1984168510610ec2576001945083601f19811610610ea9575b505050811b016006820155610c5c565b015160001960f88460031b161c19169055888080610e99565b81810151835560209485019460019093019290910190610e7e565b015190508880610bda565b9250600484016000526020600020906000935b601f1984168510610f3f576001945083601f19811610610f26575b505050811b016004820155610bf2565b015160001960f88460031b161c19169055888080610f16565b81810151835560209485019460019093019290910190610efb565b015190508880610b7a565b9250600384016000526020600020906000935b601f1984168510610fbc576001945083601f19811610610fa3575b505050811b016003820155610b92565b015160001960f88460031b161c19169055888080610f93565b81810151835560209485019460019093019290910190610f78565b015190508880610b1a565b9250600284016000526020600020906000935b601f1984168510611039576001945083601f19811610611020575b505050811b016002820155610b32565b015160001960f88460031b161c19169055888080611010565b81810151835560209485019460019093019290910190610ff5565b015190508880610aba565b9250600184016000526020600020906000935b601f19841685106110b6576001945083601f1981161061109d575b505050811b016001820155610ad2565b015160001960f88460031b161c1916905588808061108d565b81810151835560209485019460019093019290910190611072565b015190508880610a5d565b9250836000526020600020906000935b601f198416851061112d576001945083601f19811610611114575b505050811b018155610a72565b015160001960f88460031b161c19169055888080611107565b818101518355602094850194600190930192909101906110ec565b60405162461bcd60e51b815260206004820152601b60248201527f52656769737472793a20495046532043494420697320656d70747900000000006044820152606490fd5b60405162461bcd60e51b815260206004820152601c60248201527f52656769737472793a20706c616e744e616d6520697320656d707479000000006044820152606490fd5b60405162461bcd60e51b815260206004820152602260248201527f52656769737472793a20626174636820616c7265616479207265676973746572604482015261195960f21b6064820152608490fd5b60405162461bcd60e51b815260206004820152601a60248201527f52656769737472793a206261746368496420697320656d7074790000000000006044820152606490fd5b60405162461bcd60e51b815260206004820152602360248201527f526f6c654d616e616765723a2063616c6c6572206973206e6f7420612046617260448201526236b2b960e91b6064820152608490fd5b346103ac5760203660031901126103ac576004356001600160401b0381116103ac576112f36112ed6020923690600401611e88565b90612172565b54604051908152f35b346103ac5760203660031901126103ac576001600160a01b0361131d611eb5565b16600052600160205261040a6101e86103f6604060002060405192838092612093565b346103ac576020806003193601126103ac5761135a611eb5565b6000546001600160a01b039190611374908316331461237c565b1690816000526001815261138c604060002054612059565b1561141557816000526001815260406000206113a88154612059565b806113d7575b33847faa398d91fbfd49750ac42f4eec94ae598fe811c6d9df14b4f2f176e9dac68714600080a3005b600092601f82116001146113f1575050555b8180806113ae565b828452832091839161140e90601f0160051c8401600185016121a2565b55556113e9565b6064906040519062461bcd60e51b825280600483015260248201527f526f6c654d616e616765723a206163636f756e7420686173206e6f20726f6c656044820152fd5b346103ac5760203660031901126103ac576004356001600160401b0381116103ac57366023820112156103ac57368160040135916024019161149992612013565b60405181818093516020819301916114b092611fa6565b810160038152036020019020604051806114ca8184612093565b036114d59082611f60565b60405191826114e78160018401612093565b036114f29084611f60565b60405190816115048160028401612093565b0361150f9083611f60565b604051806115208160038501612093565b0361152b9082611f60565b6040518061153c8160048601612093565b036115479082611f60565b600583015490604051928380600687019061156191612093565b0361156c9085611f60565b604051948561157e8160078401612093565b036115899087611f60565b6008015495604051988998610160808b528a016115a591611fc9565b89810360208b01526115b691611fc9565b88810360408a01526115c791611fc9565b87810360608901526115d891611fc9565b86810360808801526115e991611fc9565b9060a086015284810360c086015261160091611fc9565b83810360e085015261161191611fc9565b90600160a01b6001900381166101008401528060a01c60ff16151561012084015260a81c60ff1615156101408301520390f35b346103ac576020806003193601126103ac576004356001600160401b0381116103ac576112ed611678913690600401611e88565b908154916116858361218b565b926116936040519485611f60565b8084528284018092600052836000206000915b8383106117525750505050604051918083019381845251809452604083019360408160051b85010192916000955b8287106116e15785850386f35b909192938280611742600193603f198a8203018652885161170a815160a0808552840190611fc9565b91868060a01b038086840151168683015260408301511660408201526060808301519082015260808092015191818403910152611fc9565b96019201960195929190926116d4565b60058660019260409998995161176781611f0e565b604051611778816101e8818a612093565b8152848060a01b03808688015416848301526002870154166040820152600386015460608201526040516117b3816101e88160048b01612093565b60808201528152019201920191909594956116a6565b346103ac5760003660031901126103ac576020600454604051908152f35b346103ac5760203660031901126103ac576004356001600160401b0381116103ac576008602061181d6040933690600401611e88565b9190828551938492833781016003815203019020015460ff825191818160a01c161515835260a81c1615156020820152f35b346103ac5760603660031901126103ac576004356001600160401b0381116103ac5761187f903690600401611e88565b90602435906001600160a01b03821682036103ac576044356001600160401b0381116103ac5761191b916118ba611923923690600401611e88565b9390916008604051888382376020818a8101600381520301902001968754976118e860ff8a60a01c166122e4565b6118fc6001600160a01b038a163314612330565b6001600160a01b031989166001600160a01b0389161790553691612013565b923691612013565b6001600160a01b03831615611c71576001600160a01b0384811690841614611c2c57604051602081845161195a8183858901611fa6565b810160028152030190206040519161197183611f0e565b8383526001600160a01b038681166020850152851660408401524260608401526080830152805490600160401b821015610dcc5760018201808255821015610db65760005260206000209082518051906001600160401b038211610dcc576119ed826119e260058602870154612059565b6005860287016121b9565b602090601f8311600114611bb157928260809593600593600496600092611ba6575b50508160011b916000199060031b1c1916178282028401555b60208601519102919091016001810180546001600160a01b03199081166001600160a01b0394851617909155604086015160028301805490921693169290921790915560608401516003820155919092015180519290910191906001600160401b038211610dcc57611aa482611a9e8554612059565b856121b9565b602090601f8311600114611b3957611aeb9493929160009183611b2e575b50508160011b916000199060031b1c19161790555b602060405192828480945193849201611fa6565b81010390206040514281526001600160a01b0392831693909216917ff098a9f0ca48e620570b4a4d165d5ae87dd8fd34ca0e9fa8c25480826e72cc9490602090a4005b015190508780611ac2565b90601f198316918460005260206000209260005b818110611b8e5750916001939185611aeb9897969410611b75575b505050811b019055611ad7565b015160001960f88460031b161c19169055878080611b68565b92936020600181928786015181550195019301611b4d565b015190508b80611a0f565b9060058402850160005260206000209160005b601f1985168110611c145750836005936004969360019360809997601f19811610611bfb575b505050811b01828202840155611a28565b015160001960f88460031b161c191690558b8080611bea565b91926020600181928685015181550194019201611bc4565b60405162461bcd60e51b815260206004820152601960248201527f42617463685472616e736665723a2073616d65206f776e6572000000000000006044820152606490fd5b60405162461bcd60e51b815260206004820152602860248201527f42617463685472616e736665723a206e6577206f776e6572206973207a65726f604482015267206164647265737360c01b6064820152608490fd5b346103ac5760003660031901126103ac5761040a6103f6611fee565b346103ac5760003660031901126103ac5761040a6103f6611f81565b346103ac576020611d48611d1236611ecb565b929160018060a01b0316600052600184526101e8611d3a604060002060405192838092612093565b848151910120923691612013565b82815191012014604051908152f35b346103ac5760403660031901126103ac576001600160401b036004358181116103ac57611d88903690600401611e88565b9290916024359081116103ac57611da3903690600401611e88565b93909181848237602081838101600381520301902092611de06008850154611dd060ff8260a01c166122e4565b6001600160a01b03163314612330565b8415611e4a57611e15858460077fca4fe7c5d2645920a4051fc06364ecaa518fdd1004d0f1bde3ac12d3f36d51709701612200565b81604051928392833781016000815203902092611e3f6040519283926040845260408401916122c3565b4260208301520390a2005b60405162461bcd60e51b815260206004820152601660248201527552656769737472793a2043494420697320656d70747960501b6044820152606490fd5b9181601f840112156103ac578235916001600160401b0383116103ac57602083818601950101116103ac57565b600435906001600160a01b03821682036103ac57565b9060406003198301126103ac576004356001600160a01b03811681036103ac5791602435906001600160401b0382116103ac57611f0a91600401611e88565b9091565b60a081019081106001600160401b03821117610dcc57604052565b61016081019081106001600160401b03821117610dcc57604052565b604081019081106001600160401b03821117610dcc57604052565b90601f801991011681019081106001600160401b03821117610dcc57604052565b60405190611f8e82611f45565b6009825268283937b1b2b9b9b7b960b91b6020830152565b60005b838110611fb95750506000910152565b8181015183820152602001611fa9565b90602091611fe281518092818552858086019101611fa6565b601f01601f1916010190565b60405190611ffb82611f45565b6009825268417574686f7269747960b81b6020830152565b9291926001600160401b038211610dcc576040519161203c601f8201601f191660200184611f60565b8294818452818301116103ac578281602093846000960137010152565b90600182811c92168015612089575b602083101461207357565b634e487b7160e01b600052602260045260246000fd5b91607f1691612068565b90600092918054916120a483612059565b91828252600193848116908160001461210657506001146120c6575b50505050565b90919394506000526020928360002092846000945b8386106120f25750505050010190388080806120c0565b8054858701830152940193859082016120db565b9294505050602093945060ff191683830152151560051b010190388080806120c0565b6040519061213682611f45565b600b82526a2234b9ba3934b13aba37b960a91b6020830152565b6040519061215d82611f45565b60068252652330b936b2b960d11b6020830152565b6020908260405193849283378101600281520301902090565b6001600160401b038111610dcc5760051b60200190565b8181106121ad575050565b600081556001016121a2565b9190601f81116121c857505050565b6121f4926000526020600020906020601f840160051c830193106121f6575b601f0160051c01906121a2565b565b90915081906121e7565b9092916001600160401b038111610dcc576122258161221f8454612059565b846121b9565b6000601f821160011461225f5781929394600092612254575b50508160011b916000199060031b1c1916179055565b01359050388061223e565b601f198216948382526020918281209281905b8882106122ab57505083600195969710612291575b505050811b019055565b0135600019600384901b60f8161c19169055388080612287565b80600184968294958701358155019501920190612272565b908060209392818452848401376000828201840152601f01601f1916010190565b156122eb57565b60405162461bcd60e51b815260206004820152601e60248201527f52656769737472793a20626174636820646f6573206e6f7420657869737400006044820152606490fd5b1561233757565b60405162461bcd60e51b815260206004820152601d60248201527f52656769737472793a2063616c6c6572206973206e6f74206f776e65720000006044820152606490fd5b1561238357565b606460405162461bcd60e51b815260206004820152602060248201527f526f6c654d616e616765723a2063616c6c6572206973206e6f742061646d696e6044820152fdfea2646970667358221220bd3ecfde9776dcf648af7f4ea5b096f6c5a2037f593be13d3e707d930140a31064736f6c63430008140033",
  "linkReferences": {},
  "deployedLinkReferences": {}
}